U10942858400017528.346.806-8  0             EMPRESA DE TESTE DE SOFTWARE                      
E3DR0512BR000000312932 ECF-IF DARUMA              FS-700              20160229122007
R01DR0512BR000000312932 ECF-IF DARUMA              FS-700              01.01.00  201303011255000010942858400017528.346.806-8  2222222222222200000000ISENTO00000000000000MAESTRO INFORMATICA EIRELI -  ME        BRSistemas                              1.0       b6dfd063b5d8baa728b3e46598645c4a20160210201602100202
R01BE050872800000005983 ECF-IF BEMATECH            MP-2100 TH-FI       01.02.02  201205211536000020942858400017528.346.806-8  2222222222222200000000ISENTO00000000000000MAESTRO INFORMATICA EIRELI -  ME        BRSistemas                              1.0       b6dfd063b5d8baa728b3e46598645c4a20160210201602100202
R02DR0512BR000000312932 FS-700              01000453000007904000043201602102016022912200500000000001142N
R03DR0512BR000000312932 FS-700              0100045301T00250000000000000
R03DR0512BR000000312932 FS-700              0100045302T00180000000000000
R03DR0512BR000000312932 FS-700              0100045303T00120000000000000
R03DR0512BR000000312932 FS-700              0100045304T00070000000001142
R03DR0512BR000000312932 FS-700              0100045305T00050000000000000
R03DR0512BR000000312932 FS-700              0100045306T00170000000000000
R03DR0512BR000000312932 FS-700              0100045307T00070000000000000
R03DR0512BR000000312932 FS-700              01000453OPNF   0000000000001
R03DR0512BR000000312932 FS-700              01000453Can-T  0000000000000
R03DR0512BR000000312932 FS-700              01000453DT     0000000000000
R03DR0512BR000000312932 FS-700              01000453AT     0000000000000
R03DR0512BR000000312932 FS-700              01000453F12    0000000000000
R03DR0512BR000000312932 FS-700              01000453N13    0000000000000
R03DR0512BR000000312932 FS-700              01000453I14    0000000000000
EADB71CD1CB1CEFCD6DB7274DC544448C527C974E5F74B796D3D1C7B6F68EA4D7E62C509FDBABCE164179AA6651BC55DD97E36B9F4081D5EB7292B4AAE0D9FFB45CC843EE4A86B1D3520D3C737D246E4B10D593C43B8A5CE05A4DFB46687761260BDFF4BFA1A47C4CB5958CA8F7C25642629F999A6293D6F5B386CC957D356B98E2