U10942858400017528.346.806-8  0             EMPRESA DE TESTE DE SOFTWARE                      
E3DR0512BR000000312932 ECF-IF DARUMA              FS-700              20160129143846
R01DR0512BR000000312932 ECF-IF DARUMA              FS-700              01.01.00  201303011255000010942858400017528.346.806-8  2222222222222200000000ISENTO00000000000000MAESTRO INFORMATICA EIRELI -  ME        BRSistemas                              1.0       b6dfd063b5d8baa728b3e46598645c4a20160128201601280202
R01BE050872800000005983 ECF-IF BEMATECH            MP-2100 TH-FI       01.02.02  201205211536000020942858400017528.346.806-8  2222222222222200000000ISENTO00000000000000MAESTRO INFORMATICA EIRELI -  ME        BRSistemas                              1.0       b6dfd063b5d8baa728b3e46598645c4a20160128201601280202
R02DR0512BR000000312932 FS-700              01000451000007882000043201601282016012914384400000000001428N
R03DR0512BR000000312932 FS-700              0100045101T00250000000000000
R03DR0512BR000000312932 FS-700              0100045102T00180000000000000
R03DR0512BR000000312932 FS-700              0100045103T00120000000000000
R03DR0512BR000000312932 FS-700              0100045104T00070000000000000
R03DR0512BR000000312932 FS-700              0100045105T00050000000000000
R03DR0512BR000000312932 FS-700              0100045106T00170000000000000
R03DR0512BR000000312932 FS-700              0100045107T00070000000000000
R03DR0512BR000000312932 FS-700              01000451OPNF   0000000000001
R03DR0512BR000000312932 FS-700              01000451Can-T  0000000001428
R03DR0512BR000000312932 FS-700              01000451DT     0000000000000
R03DR0512BR000000312932 FS-700              01000451AT     0000000000000
R03DR0512BR000000312932 FS-700              01000451F12    0000000000000
R03DR0512BR000000312932 FS-700              01000451N13    0000000000000
R03DR0512BR000000312932 FS-700              01000451I14    0000000000000
EAD7234AF27F556F4109671FD8679C78CE242A72369837D13071D589E2D00B01904BB325E9C80F70531766B9D0D14FBF367B583A2BDE0B68B1AAF5B42BEB4BC59DE9B6EDE491BD76695B364C53AE758BB76F526D478B5D08D04C8FA6A655A8B354B2B5BD15CAB1680919CD73ED36B58E20930BC21B8A6269D5B14AC3D73FF90A2C8