U10942858400017528.346.806-8  0             PDV EMPRESA DE TESTE DE SOFTWARE                  
E3DR0512BR000000312932 ECF-IF DARUMA              FS-700              20161026183108
R01DR0512BR000000312932 ECF-IF DARUMA              FS-700              01.01.00  201303011255000010942858400017528.346.806-8  222222222222221111111111111100000000000000MAESTRO INFORMATICA EIRELI -  ME        BRSistemas                              1.0       b6dfd063b5d8baa728b3e46598645c4a20161019201610190202
R01BE050872800000005983 ECF-IF BEMATECH            MP-2100 TH-FI       01.02.02  201205211536000020942858400017528.346.806-8  222222222222221111111111111100000000000000MAESTRO INFORMATICA EIRELI -  ME        BRSistemas                              1.0       b6dfd063b5d8baa728b3e46598645c4a20161019201610190202
R02DR0512BR000000312932 FS-700              01000476000008085000043201610192016102618310600000000000000N
R03DR0512BR000000312932 FS-700              0100047601T00250000000000000
R03DR0512BR000000312932 FS-700              0100047602T00180000000000000
R03DR0512BR000000312932 FS-700              0100047603T00120000000000000
R03DR0512BR000000312932 FS-700              0100047604T00070000000000000
R03DR0512BR000000312932 FS-700              0100047605T00050000000000000
R03DR0512BR000000312932 FS-700              0100047606T00170000000000000
R03DR0512BR000000312932 FS-700              0100047607T00070000000000000
R03DR0512BR000000312932 FS-700              01000476OPNF   0000000000001
R03DR0512BR000000312932 FS-700              01000476Can-T  0000000000000
R03DR0512BR000000312932 FS-700              01000476DT     0000000000000
R03DR0512BR000000312932 FS-700              01000476AT     0000000000000
R03DR0512BR000000312932 FS-700              01000476F12    0000000000000
R03DR0512BR000000312932 FS-700              01000476N13    0000000000000
R03DR0512BR000000312932 FS-700              01000476I14    0000000000000
R06DR0512BR000000312932 FS-700              010000080820029050016090000RG20161019183639
EAD4DABB9AE9A57C880C22CEAEAF50DAAB2F9D2FFCAF7DDC7C498AE1107A9EB527E3DEC0B99180A4BD53E5479B2464DEBC24CC8E40F5953ADDEE431F0A8B9A777C24B8780A53EBAE37BFE63DEEF9525614C78FA25FBA08A835A0310536616ADFE244C884B8F71EEE3F7A5C45111E4685B4A00FA6CCA65607FA91BE9FABFBED2E0D4