U10942858400017528.346.806-8  0             PDV EMPRESA DE TESTE DE SOFTWARE                  
E3DR0512BR000000312932 ECF-IF DARUMA              FS-700              20170324234238
R01DR0512BR000000312932 ECF-IF DARUMA              FS-700              01.01.00  201303011255000010942858400017528.346.806-8  222222222222221111111111111100000000000000MAESTRO INFORMATICA EIRELI -  ME        BRSistemas                              1.0       b6dfd063b5d8baa728b3e46598645c4a20170213201702130202
R01BE091310100011274912 ECF-IF BEMATECH            MP-2100 TH-FI       01.02.02  201205211536000020942858400017528.346.806-8  222222222222221111111111111100000000000000MAESTRO INFORMATICA EIRELI -  ME        BRSistemas                              1.0       b6dfd063b5d8baa728b3e46598645c4a20170213201702130202
R02DR0512BR000000312932 FS-700              01000490000008170000043201702132017032423422800000000000000N
R03DR0512BR000000312932 FS-700              0100049001T00250000000000000
R03DR0512BR000000312932 FS-700              0100049002T00180000000000000
R03DR0512BR000000312932 FS-700              0100049003T00120000000000000
R03DR0512BR000000312932 FS-700              0100049004T00070000000000000
R03DR0512BR000000312932 FS-700              0100049005T00050000000000000
R03DR0512BR000000312932 FS-700              0100049006T00170000000000000
R03DR0512BR000000312932 FS-700              0100049007T00070000000000000
R03DR0512BR000000312932 FS-700              01000490OPNF   0000000000001
R03DR0512BR000000312932 FS-700              01000490Can-T  0000000000000
R03DR0512BR000000312932 FS-700              01000490DT     0000000000000
R03DR0512BR000000312932 FS-700              01000490AT     0000000000000
R03DR0512BR000000312932 FS-700              01000490F12    0000000000000
R03DR0512BR000000312932 FS-700              01000490N13    0000000000000
R03DR0512BR000000312932 FS-700              01000490I14    0000000000000
EAD40F23C842166EF378280F82102A2688D5D611276EBEBF3D6ADA216411E7E9FDA23DD6BD933F1D212981C16FD198E8EE71D81F1DAA10F230332F5A970F7C2D108B761596AAB60D154154B30EB6ED9EF50AE24116595C3BDB26421B42013B75C6C15D43242413B905C0838EF1FFD14221C73418D15CF9DCBCDC369EDED213D49C8