U169603447000151194265706     00            JOAQUIM JULIO COELHO ME                           
E3DR0512BR000000312932 ECF-IF BEMATECH            MP-2100             20170405084501
R01DR0512BR000000312932 ECF-IF BEMATECH            MP-2100?????????????01.01.00  2013030112550000169603447000151194265706     1309052100012900000000ISENTO00000000000000G2 SISTEMAS LTDA - ME                   G2 FARMA PDV                            3.0       04284406227b20fd518e5e587f8ba8b720170329201703290202
R02BE051275610000145581 MP-2100?????????????01001151000008898000002201703292017032921442700000000000000N
R02DR0512BR000000312932 MP-2100             01000493000008186000043201703292017041711452800000000000000N
R03BE051275610000145581 MP-2100?????????????0100115101T00180000000000000
R03BE051275610000145581 MP-2100?????????????0100115102T00120000000000000
R03BE051275610000145581 MP-2100?????????????0100115103T00250000000000000
R03BE051275610000145581 MP-2100?????????????0100115104T00300000000000000
R03BE051275610000145581 MP-2100?????????????01001151OPNF   0000000000000
R03BE051275610000145581 MP-2100?????????????01001151Can-T  0000000000000
R03BE051275610000145581 MP-2100?????????????01001151DT     0000000000000
R03BE051275610000145581 MP-2100?????????????01001151AT     0000000000000
R03BE051275610000145581 MP-2100?????????????01001151F09    0000000000000
R03BE051275610000145581 MP-2100?????????????01001151N10    0000000000000
R03BE051275610000145581 MP-2100?????????????01001151I11    0000000000000
R03DR0512BR000000312932 MP-2100             0100049301T00250000000000000
R03DR0512BR000000312932 MP-2100             0100049302T00180000000000000
R03DR0512BR000000312932 MP-2100             0100049303T00120000000000000
R03DR0512BR000000312932 MP-2100             0100049304T00070000000000000
R03DR0512BR000000312932 MP-2100             0100049305T00050000000000000
R03DR0512BR000000312932 MP-2100             0100049306T00170000000000000
R03DR0512BR000000312932 MP-2100             0100049307T00070000000000000
R03DR0512BR000000312932 MP-2100             01000493OPNF   0000000000001
R03DR0512BR000000312932 MP-2100             01000493Can-T  0000000000000
R03DR0512BR000000312932 MP-2100             01000493DT     0000000000000
R03DR0512BR000000312932 MP-2100             01000493AT     0000000000000
R03DR0512BR000000312932 MP-2100             01000493F12    0000000000000
R03DR0512BR000000312932 MP-2100             01000493N13    0000000000000
R03DR0512BR000000312932 MP-2100             01000493I14    0000000000000
R06DR0512BR000000312932 MP-2100?????????????010000088970016320000000000CN20170329081227
EAD29AF569E229ADD7BDFC11B21808428FFB5F785B972C13293B512742C8F2E5E8EA3E9E2144DB1E53B9EA00B7ED95820992E3392C91F477C334E736147C10A7927C1C4F67AA6EF8DC84B8FA7BFC3BAC25265DC420BC73DAB40491D224CB70E09CB3DFE11DF01E307680CFB9367A0B559352D14905B337C596AAC4B7EAC5E2CCC28