U10942858400017528.346.806-8  0             PDV EMPRESA DE TESTE DE SOFTWARE                  
E3DR0512BR000000312932 ECF-IF DARUMA              FS-700              20161017131656
R01DR0512BR000000312932 ECF-IF DARUMA              FS-700              01.01.00  201303011255000010942858400017528.346.806-8  222222222222221111111111111100000000000000MAESTRO INFORMATICA EIRELI -  ME        BRSistemas                              1.0       b6dfd063b5d8baa728b3e46598645c4a20161013201610130202
R01BE050872800000005983 ECF-IF BEMATECH            MP-2100 TH-FI       01.02.02  201205211536000020942858400017528.346.806-8  222222222222221111111111111100000000000000MAESTRO INFORMATICA EIRELI -  ME        BRSistemas                              1.0       b6dfd063b5d8baa728b3e46598645c4a20161013201610130202
R02DR0512BR000000312932 FS-700              01000474000008072000043201610132016101713165400000000002856N
R03DR0512BR000000312932 FS-700              0100047401T00250000000000000
R03DR0512BR000000312932 FS-700              0100047402T00180000000000000
R03DR0512BR000000312932 FS-700              0100047403T00120000000002856
R03DR0512BR000000312932 FS-700              0100047404T00070000000000000
R03DR0512BR000000312932 FS-700              0100047405T00050000000000000
R03DR0512BR000000312932 FS-700              0100047406T00170000000000000
R03DR0512BR000000312932 FS-700              0100047407T00070000000000000
R03DR0512BR000000312932 FS-700              01000474OPNF   0000000000001
R03DR0512BR000000312932 FS-700              01000474Can-T  0000000000000
R03DR0512BR000000312932 FS-700              01000474DT     0000000000000
R03DR0512BR000000312932 FS-700              01000474AT     0000000000000
R03DR0512BR000000312932 FS-700              01000474F12    0000000000000
R03DR0512BR000000312932 FS-700              01000474N13    0000000000000
R03DR0512BR000000312932 FS-700              01000474I14    0000000000000
EAD31596ED91F65D107C607248807C4A1028A0E84239A737443E9BD63AD7BF3C001DB35B3C1DA5CB3A734008C00BCC766DED14AA1D22F749A3FA8BA0AA8977DF12D75CE5F25F7E3A65C21A90AFEF258F79B9CC174B7D478AEE1476DDABC3C50ECC91D241CBD50AD88BAAFAFE7AE14DC411DE7040DE4719CF9945115E56A3C0F42D5