U10942858400017528.346.806-8  0             EMPRESA DE TESTE DE SOFTWARE                      
E3DR0512BR000000312932 ECF-IF DARUMA              FS-700              20160407150434
R01DR0512BR000000312932 ECF-IF DARUMA              FS-700              01.01.00  201303011255000010942858400017528.346.806-8  2222222222222200000000ISENTO00000000000000MAESTRO INFORMATICA EIRELI -  ME        BRSistemas                              1.0       b6dfd063b5d8baa728b3e46598645c4a20160321201603210202
R01BE050872800000005983 ECF-IF BEMATECH            MP-2100 TH-FI       01.02.02  201205211536000020942858400017528.346.806-8  2222222222222200000000ISENTO00000000000000MAESTRO INFORMATICA EIRELI -  ME        BRSistemas                              1.0       b6dfd063b5d8baa728b3e46598645c4a20160321201603210202
R02DR0512BR000000312932 FS-700              01000455000007923000043201603212016040715042500000000051702N
R03DR0512BR000000312932 FS-700              0100045501T00250000000000000
R03DR0512BR000000312932 FS-700              0100045502T00180000000000000
R03DR0512BR000000312932 FS-700              0100045503T00120000000000000
R03DR0512BR000000312932 FS-700              0100045504T00070000000000000
R03DR0512BR000000312932 FS-700              0100045505T00050000000000000
R03DR0512BR000000312932 FS-700              0100045506T00170000000049000
R03DR0512BR000000312932 FS-700              0100045507T00070000000000000
R03DR0512BR000000312932 FS-700              01000455OPNF   0000000000001
R03DR0512BR000000312932 FS-700              01000455Can-T  0000000000000
R03DR0512BR000000312932 FS-700              01000455DT     0000000002702
R03DR0512BR000000312932 FS-700              01000455AT     0000000000000
R03DR0512BR000000312932 FS-700              01000455F12    0000000000000
R03DR0512BR000000312932 FS-700              01000455N13    0000000000000
R03DR0512BR000000312932 FS-700              01000455I14    0000000000000
EAD072D80F496532EAB8E6B2B5FE1A477EB87947E06E6D4A61E9FD9607D916A693066236D987C5C1F8007C521C1AD5F17E2300898E1323546592D613960AE7B08162129ACF5A7C95E0804D19503B68B89A8E5B37A2A8E4A1D7BDDDA48DC9C1637664E8AE9D4004C5A93B5C269E543F340BF0EAEFC3AA907B3F50FDA5EE6DFEBBED3