U10942858400017528.346.806-8  0             EMPRESA DE TESTE DE SOFTWARE                      
E3DR0512BR000000312932 ECF-IF DARUMA              FS-700              20160418181231
R01DR0512BR000000312932 ECF-IF DARUMA              FS-700              01.01.00  201303011255000010942858400017528.346.806-8  2222222222222200000000ISENTO00000000000000MAESTRO INFORMATICA EIRELI -  ME        BRSistemas                              1.0       b6dfd063b5d8baa728b3e46598645c4a20160414201604140202
R01BE050872800000005983 ECF-IF BEMATECH            MP-2100 TH-FI       01.02.02  201205211536000020942858400017528.346.806-8  2222222222222200000000ISENTO00000000000000MAESTRO INFORMATICA EIRELI -  ME        BRSistemas                              1.0       b6dfd063b5d8baa728b3e46598645c4a20160414201604140202
R02DR0512BR000000312932 FS-700              01000458000007952000043201604142016041818122900000000001000N
R03DR0512BR000000312932 FS-700              0100045801T00250000000000000
R03DR0512BR000000312932 FS-700              0100045802T00180000000000000
R03DR0512BR000000312932 FS-700              0100045803T00120000000000000
R03DR0512BR000000312932 FS-700              0100045804T00070000000000000
R03DR0512BR000000312932 FS-700              0100045805T00050000000000000
R03DR0512BR000000312932 FS-700              0100045806T00170000000001000
R03DR0512BR000000312932 FS-700              0100045807T00070000000000000
R03DR0512BR000000312932 FS-700              01000458OPNF   0000000000000
R03DR0512BR000000312932 FS-700              01000458Can-T  0000000000000
R03DR0512BR000000312932 FS-700              01000458DT     0000000000000
R03DR0512BR000000312932 FS-700              01000458AT     0000000000000
R03DR0512BR000000312932 FS-700              01000458F12    0000000000000
R03DR0512BR000000312932 FS-700              01000458N13    0000000000000
R03DR0512BR000000312932 FS-700              01000458I14    0000000000000
EAD24F63E4A231F50A44DFABAD7BBB12167D81F687BC0C95BE2A9B55C34CDFC7C0AC6AEBF53A5277E107EA238C832130B13BD09666432CD33112E3174C2A562A24BB16137256524CFF81204E96D0A8F1E641B242E1C96C6311A8B7008095E389CF7B258B476B8473DCEBD9B63731FC9BA8EFC1FD4E26C7F50726A8E332C6CDEB527