U10942858400017528.346.806-8  0             PDV EMPRESA DE TESTE DE SOFTWARE                  
E3DR0512BR000000312932 ECF-IF DARUMA              FS-700              20170217124054
R01DR0512BR000000312932 ECF-IF DARUMA              FS-700              01.01.00  201303011255000010942858400017528.346.806-8  222222222222221111111111111100000000000000MAESTRO INFORMATICA EIRELI -  ME        BRSistemas                              1.0       b6dfd063b5d8baa728b3e46598645c4a20170209201702090202
R01BE091310100011274912 ECF-IF BEMATECH            MP-2100 TH-FI       01.02.02  201205211536000020942858400017528.346.806-8  222222222222221111111111111100000000000000MAESTRO INFORMATICA EIRELI -  ME        BRSistemas                              1.0       b6dfd063b5d8baa728b3e46598645c4a20170209201702090202
R02BE091310100011274912 MP-2100 TH-FI       01000070000001519000003201702092017021712403700000000001401N
R03BE091310100011274912 MP-2100 TH-FI       0100007001T00170000000000000
R03BE091310100011274912 MP-2100 TH-FI       0100007002T00120000000000000
R03BE091310100011274912 MP-2100 TH-FI       0100007003T00100000000000000
R03BE091310100011274912 MP-2100 TH-FI       0100007004T00070000000000000
R03BE091310100011274912 MP-2100 TH-FI       0100007005T00030000000000000
R03BE091310100011274912 MP-2100 TH-FI       0100007006T00050000000000000
R03BE091310100011274912 MP-2100 TH-FI       01000070OPNF   0000000000000
R03BE091310100011274912 MP-2100 TH-FI       01000070Can-T  0000000000000
R03BE091310100011274912 MP-2100 TH-FI       01000070DT     0000000000000
R03BE091310100011274912 MP-2100 TH-FI       01000070AT     0000000000000
R03BE091310100011274912 MP-2100 TH-FI       01000070F11    0000000001401
R03BE091310100011274912 MP-2100 TH-FI       01000070N12    0000000000000
R03BE091310100011274912 MP-2100 TH-FI       01000070I13    0000000000000
EAD15B610B8816E206A5339CAB0E426AC8286205FD8227544268FEDFAC0C70A57412BE693C0A96C3243C274662F0F8C140C4600E066AE7D77313FE9BA908858E77184C5DE451504CDFA8C7A1BDC2947B014611AC3301D5560DAB056AE000B4F843FB1C9EB6F32849161AA5124F0249EC95BDB8D6DF1DBCEA4BABEFE027DEC37DFC0