U10942858400017528.346.806-8  0             PDV EMPRESA DE TESTE DE SOFTWARE                  
E3DR0512BR000000312932 ECF-IF DARUMA              FS-700              20170522212316
R01DR0512BR000000312932 ECF-IF DARUMA              FS-700              01.01.00  201303011255000010942858400017528.346.806-8  222222222222221111111111111100000000000000MAESTRO INFORMATICA EIRELI -  ME        BRSistemas                              1.0       b6dfd063b5d8baa728b3e46598645c4a20170510201705100202
R01BE091310100011274912 ECF-IF BEMATECH            MP-2100 TH-FI       01.02.02  201205211536000020942858400017528.346.806-8  222222222222221111111111111100000000000000MAESTRO INFORMATICA EIRELI -  ME        BRSistemas                              1.0       b6dfd063b5d8baa728b3e46598645c4a20170510201705100202
R02DR0512BR000000312932 FS-700              01000496000008199000043201705102017052221231300000000000000N
R03DR0512BR000000312932 FS-700              0100049601T00250000000000000
R03DR0512BR000000312932 FS-700              0100049602T00180000000000000
R03DR0512BR000000312932 FS-700              0100049603T00120000000000000
R03DR0512BR000000312932 FS-700              0100049604T00070000000000000
R03DR0512BR000000312932 FS-700              0100049605T00050000000000000
R03DR0512BR000000312932 FS-700              0100049606T00170000000000000
R03DR0512BR000000312932 FS-700              0100049607T00070000000000000
R03DR0512BR000000312932 FS-700              01000496OPNF   0000000000001
R03DR0512BR000000312932 FS-700              01000496Can-T  0000000000000
R03DR0512BR000000312932 FS-700              01000496DT     0000000000000
R03DR0512BR000000312932 FS-700              01000496AT     0000000000000
R03DR0512BR000000312932 FS-700              01000496F12    0000000000000
R03DR0512BR000000312932 FS-700              01000496N13    0000000000000
R03DR0512BR000000312932 FS-700              01000496I14    0000000000000
EAD94ACE16A237A0E95B197CDBF14ACC2B4678FDBF493925D3609CCDACAAA6D44EFC216C4967EE0E1DE2FDA1CDED13F772E9C0F02B8271580D49F323FE3E02DA6E4A067921B220E948DE2571C319861623C603F1FADDFE168AC0CC2321CCF250029F060D8113C4BBDD52FA05C5C09BF2FF49581157963452F6EDEDA2112A422E582