U10942858400017528.346.806-8  0             PDV EMPRESA DE TESTE DE SOFTWARE                  
E3DR0512BR000000312932 ECF-IF DARUMA              FS-700              20161130183938
R01DR0512BR000000312932 ECF-IF DARUMA              FS-700              01.01.00  201303011255000010942858400017528.346.806-8  222222222222221111111111111100000000000000MAESTRO INFORMATICA EIRELI -  ME        BRSistemas                              1.0       b6dfd063b5d8baa728b3e46598645c4a20161101201611010202
R01BE050872800000005983 ECF-IF BEMATECH            MP-2100 TH-FI       01.02.02  201205211536000020942858400017528.346.806-8  222222222222221111111111111100000000000000MAESTRO INFORMATICA EIRELI -  ME        BRSistemas                              1.0       b6dfd063b5d8baa728b3e46598645c4a20161101201611010202
R02DR0512BR000000312932 FS-700              01000479000008103000043201611012016113018393600000000209400N
R03DR0512BR000000312932 FS-700              0100047901T00250000000000000
R03DR0512BR000000312932 FS-700              0100047902T00180000000183100
R03DR0512BR000000312932 FS-700              0100047903T00120000000000000
R03DR0512BR000000312932 FS-700              0100047904T00070000000000000
R03DR0512BR000000312932 FS-700              0100047905T00050000000000000
R03DR0512BR000000312932 FS-700              0100047906T00170000000000000
R03DR0512BR000000312932 FS-700              0100047907T00070000000000000
R03DR0512BR000000312932 FS-700              01000479OPNF   0000000000001
R03DR0512BR000000312932 FS-700              01000479Can-T  0000000026300
R03DR0512BR000000312932 FS-700              01000479DT     0000000000000
R03DR0512BR000000312932 FS-700              01000479AT     0000000002500
R03DR0512BR000000312932 FS-700              01000479F12    0000000000000
R03DR0512BR000000312932 FS-700              01000479N13    0000000000000
R03DR0512BR000000312932 FS-700              01000479I14    0000000000000
EAD91C2A9AEDB6E761528C0FCAF9D113E5974A909E1DD4A4D8824FB975B960EC3FE343AE9F34BE369C2B75FC51C86AD0B981304EA06C0821CBDCACC2067321D3BC4793B4AAD309FEE3CAA81E2BF4A5AB04BA3AF8A9C344417F395E8588E38191EB487B26CD59FF56DC5E100B1F5BC8C54CD9C455FD72F7265C1B8AD55D1FEF902C3